:020000040800F2
:1000000030070020BD010008A51B00089916000854
:10001000A11B0008B50300089D1C0008000000009B
:10002000000000000000000000000000911C00081B
:10003000B903000800000000A91B0008951C000877
:10004000D7010008D7010008D7010008D701000830
:10005000D7010008D7010008D7010008D701000820
:10006000D7010008D7010008D7010008D701000810
:10007000D7010008D7010008D7010008D701000800
:10008000D7010008D7010008D7010008D7010008F0
:10009000D7010008D7010008D7010008D7010008E0
:1000A00000000000D7010008D7010008D7010008B0
:1000B000D7010008D7010008D7010008D7010008C0
:1000C000D7010008D7010008D7010008D7010008B0
:1000D000D7010008D7010008D7010008D7010008A0
:1000E000D7010008D7010008D7010008D701000890
:1000F000D701000800F002F800F050F814A696E8C6
:10010000000CB244B344DA4501D100F047F8BAE834
:100110000F000FA696E83000A5EB040504EB0607D8
:10012000AAEB0704A7F101074FEA15154FEA3414AB
:10013000A4F10104AC4201D300F030F813F0010F38
:1001400018BFFB1A43F0010300F001F8DBE7184782
:100150000823000028230000103A24BF78C878C183
:10016000FAD8520724BF30C830C144BF04680C60BD
:10017000704700007047000000230024002500267F
:10018000103A28BF78C1FBD8520728BF30C148BFFA
:100190000B6070471FB51FBD10B510BD00F0D0F843
:1001A0001146FFF7F7FF01F09DFE00F0EEF803B4F3
:1001B000FFF7F2FF03BC00F0F5F8000009488047A4
:1001C00009480047FEE7FEE7FEE7FEE7FEE7FEE739
:1001D000FEE7FEE7FEE7FEE704480549054A064B51
:1001E00070470000991C0008F5000008300100204D
:1001F00030070020300300203003002053EA020CB7
:1002000000F069802DE9F04B4FF00006002B1FBF76
:10021000B3FA83F503FA05F424FA05F65E4012BF3B
:100220001643B2FA82F502FA05F4C5F120051EBFA5
:1002300022FA05FC44EA0C04203556EA044C4FEA45
:10024000144418BF641C4FF000084FF0000990429E
:1002500071EB030C39D3002919BFB1FA81F701FA08
:1002600007F6B0FA80F700FA07F6C7F120071EBFBD
:1002700020FA07FC46EA0C062037B6FBF4FCA7EB95
:100280000507103F07F01F0BCBF120062CFA06F6EE
:100290000CFA0BFB44BFB3460026202FA4BF5E46DA
:1002A0004FF0000B5BEA060C08BF4FF0010B19EB97
:1002B0000B0948EB0608ABFB027C06FB02CC0BFBF0
:1002C00003CCC01B71EB0C01C1E70B460246414653
:1002D0004846BDE8F08B13B5084318BF4FF0FF3018
:1002E0000146AFF30080BDE81C4070474FF00002AC
:1002F00000B5134694469646203922BFA0E80C501C
:10030000A0E80C50B1F12001BFF4F7AF090728BFF6
:10031000A0E80C5048BF0CC05DF804EB890028BF72
:1003200040F8042B08BF704748BF20F8022B11F09B
:10033000804F18BF00F8012B704770477047704717
:10034000754600F02BF8AE4605006946534620F08E
:100350000700854618B020B5FFF73EFFBDE82040F6
:100360004FF000064FF000074FF000084FF0000B71
:10037000AC46ACE8C009ACE8C009ACE8C009ACE8E0
:10038000C00921F007018D46704710B50446AFF350
:1003900000802046BDE81040FFF709BF00487047C5
:1003A0002000002001491820ABBEFEE72600020015
:1003B00070470000FEE7000070470000B0B504463B
:1003C00000F0F0F8054640F21400C2F20000406868
:1003D000611C18BF044400BF00F0E4F8401BA042B9
:1003E000FAD3B0BD2DE9F04F83B00E68002E00F0B7
:1003F000C98000F1200200F13E4741F2000C00925A
:1004000007F1FF77C4F2020C052240F2004B4FEADD
:10041000B725604508BF0422C4F2010B042D38BF84
:100420004FEAB722002500274FF0000801920AE0AA
:100430000E6808F1010836FA08F207F1020705F123
:10044000040500F09F80012202FA08FE16EA0E0958
:10045000EED0D1F804C003220CF00306741EBA409B
:10046000012C6FEA020A11D88268CC6802EA0A02FB
:10047000BC40224382604268CCF3001422EA0E02A0
:1004800004FA08F42243426004E000BF032E01D1C5
:1004900003261EE0C2688C6802EA0A02BC402243BE
:1004A000022EC26015D16FF0030202EA580E009AC4
:1004B00005F01C0452F80EC00F230E69A3402CEA6D
:1004C0000303A640334342F80E30D1F804C00CF0C9
:1004D0000306026806FA07F302EA0A021A431CF44A
:1004E000403F0260A4D043F62003C4F202031A681E
:1004F0004FF6084C42F001021A601A68CFF6FF7CF2
:1005000002F001020292029A28F003025A4452F8C1
:100510000C3005F00C060F24B440A343019C04FAF0
:1005200006F6334342F80C30DBF808204B6842EA09
:10053000090640F20C4CDC0258BF22EA0906CBF84F
:100540000860C4F2010CDCF800209C0242EA0906B3
:1005500058BF22EA0906CCF80060DBF804209C03AF
:1005600042EA090658BF22EA0906CBF80460DBF824
:100570000020DB0342EA090658BF22EA0906CBF84D
:10058000006055E703B0BDE8F08F00000069084047
:1005900018BF012070470000002A08BF09048161CC
:1005A0007047000040F22C10C2F200000068704753
:1005B000002804BF01207047F0B581B0044690F8D0
:1005C0003D0028B9002084F83C00204600F0C6F920
:1005D000242084F83D002068016821F001010160B9
:1005E000016841F400410160016821F400410160AB
:1005F00000F0A8FB636848F2A16CC0F2010C40F661
:100600000011C0F23D0163453CBF48F28041C0F299
:100610001E01884202D2012001B0F0BD4DF6836177
:10062000C4F21B31A0FB01122168970CD1F804E041
:100630004FF496762EF03F0545EA92454D6077439C
:1006400048F638160D6AC0F24106A7FB067625F07B
:100650003F07634538BF960C721C3A430A62CA6969
:1006600048F2A0664CF6FF77C0F20106B34222EAD8
:1006700007020BD801385B00B0FBF3F001306FF3D9
:100680001F30042898BF04201BE000BFA768013872
:1006900057B119277B43B0FBF3F001306FF31F30E4
:1006A00070B100F5804007E003EB4303B0FBF3F0CB
:1006B00001306FF31F3018B100F5004001E000BFBA
:1006C00001201043C8610868D4E9072320F0C00066
:1006D000104318430860886848F2FF3204F10C07A1
:1006E00090438CCF18431043A6698860C86820F0F7
:1006F000FF0038433043C860086840F001000860DC
:1007000000202021206484F83D10206384F83E00FE
:1007100001B0F0BD2DE9F04784B0994616460F466A
:100720000446FFF73FFF94F83D10202927D10546E6
:10073000206800BF816989071CD5FFF733FF411B83
:1007400020681A29F6D381698907F3D50020202172
:10075000206384F83D1084F83E00206C04F13C0ACC
:1007600040F020002064022000218AF8001004B02C
:10077000BDE8F087A2461AF83C1F012904D10220E7
:1007800004B0BDE8F08700BF01228AF800200368AA
:10079000DDE90D180C9ADB0703D1036843F0010370
:1007A0000360036823F400630360222084F83D00A3
:1007B000402084F83E000020206462626185608DE4
:1007C000394620850020CFF6FF70E0622046324691
:1007D0004B46CDE9008500F061FF18B1012004B05F
:1007E000BDE8F087208D08B3022813D0012835D149
:1007F00021680A6822F480620A60002203924A6932
:1008000003928A690392039A0A6842F400720A60AA
:100810002CE000BF21680A6822F480620A600A683E
:1008200042F400620A60002203921AE00020039062
:10083000206841690391816903910399016841F43A
:1008400000710160202084F83D00002084F83E0003
:1008500000218AF8001004B0BDE8F0870021039160
:1008600021684A6903928969039103990427C0F2B8
:1008700001070BE00870606A218D01306062481E3C
:100880002085618D013961850104DBD080B20328A8
:100890000ED8022843D0012826D1204641462A46B8
:1008A00001F0D8F8002899D12068616A0069E1E771
:1008B000204641462A4601F0CDF800287FF48EAF4D
:1008C0002068616A00690870606A2268411C208D96
:1008D000616201382085638D013B638553695B0745
:1008E000D2D51069C6E700BF2046394600224346EC
:1008F000009500F05DFF00287FF470AF2068616A0A
:10090000026822F48062026000690870606A218DCA
:1009100001306062481E2085608D01386085204668
:10092000394600224346009500F042FF00287FF43C
:1009300055AF2068616A026842F400720260006983
:100940000870606A2268411C6162218D013921852D
:10095000618D01396185116941708CE710B586B0F0
:1009600045F200410068C4F200010022884205926D
:10097000CDE903220292019202D006B010BD00BF61
:1009800043F61C04C4F20204206840F00200206018
:10099000206800F0020000900098C0200190122012
:1009A000CDE90202032004900420059001F5D8301F
:1009B00001A9FFF717FDA06840F40010A060A0682F
:1009C00000F400100090009806B010BD40F2140032
:1009D00040F22C11C2F20000C2F2000140680A6825
:1009E000104408607047000080B5032000F086F8CE
:1009F0000F2000F009F800281CBF012080BD00F086
:100A00002BF8002080BD0000B0B540F21405C2F202
:100A100000056968F1B1044640F21C00C2F2000012
:100A20004FF47A720068B2FBF1F1B0FBF1F000F024
:100A30001DFE01460F2C4FF001000AD8002918BFF7
:100A4000B0BD4FF0FF302146002200F02BF800200F
:100A50002C60B0BD0120B0BD83B043F62400C4F2C9
:100A60000200016841F000410160016801F00041AD
:100A70000291029950F8041C41F0010140F8041C55
:100A800050F8041C01F0010101910199016841F045
:100A900080510160006800F080500090009803B021
:100AA0007047000010B54EF60C5CCEF2000CDCF87E
:100AB0000030C3F3022E8EF00704042C28BF042458
:100AC000BEF103034FF0FF3E0EFA04F438BF0023DB
:100AD000A14399400EFA03F39A43114300F00F0229
:100AE00000F160430901043A03F5644362440028BD
:100AF00048BF02F10C03197010BD00004EF60C51F6
:100B0000CEF200010A684FF6FF031A4060F30A2292
:100B100042F0806040F0FD70086070472DE9F041C0
:100B2000002800F09B8043F60807C4F20207044641
:100B3000D7F8F8030D4600F00100884215D2012DC8
:100B400005D1D7F8F80340F00400C7F8F803D7F848
:100B5000F80320F001002843C7F8F803D7F8F8039A
:100B600000F00100A84240F079802068810705D597
:100B70003968A26821F0F00111433960C00737D10C
:100B8000D7F8F80300F00100A84209D9D7F8F80314
:100B900020F00100C7F8F803D7F8F803C0075DD1CB
:100BA0002068410705D53968E26821F4E061114306
:100BB0003960000706D53868216920F4605040EAA2
:100BC000C10038603968C1F3810242F20040C0F2CE
:100BD000F400DFE802F0039E1D2300BF57F8040C69
:100BE0004FF48031C0F3423001FA00F091E000BFD1
:100BF000606857F8081C012828D0032820D0022854
:100C00002AD189035CBF0120BDE8F0812AE000BF42
:100C100043F20060C0F26E107BE000BF42F24C4332
:100C2000C1F38342C0F600039B5C3A68C1F3815173
:100C3000D20301F1010263D45843B0FBF2F068E043
:100C400089015CBF0120BDE8F0810BE089075CBF32
:100C50000120BDE8F08105E0890503D40120BDE84D
:100C6000F08100BF396821F0030108433860FFF7C5
:100C700099FC61680646032941F2883839D0022977
:100C800029D0012910D100BF386800F00C000428D9
:100C90003FF476AFFFF786FC801B40454FF0030022
:100CA000F2D9BDE8F08100BF386810F00C0F3FF4B6
:100CB00067AFFFF777FC801B40454FF0030088BF0C
:100CC000BDE8F081F0E700BFFFF76CFC801B4045FA
:100CD0004FF00300E5D8386800F00C000828F3D185
:100CE0004EE700BFFFF75EFC801B40454FF003005E
:100CF000D7D8386800F00C000C28F3D140E700BFCB
:100D000043F20060C0F26E10A3FB00010023FFF766
:100D100075FA396842F23442C1F30311C0F6000299
:100D2000515C40F21C0220FA01F140F21400C2F2C0
:100D300000000068C2F200021160BDE8F041FFF758
:100D400063BE000040F21C0043F60801C2F200003E
:100D5000C4F202010068096842F24442C1F3022170
:100D6000C0F60002515CC84070470000002804BF74
:100D7000012070472DE9F04383B043F60006044696
:100D8000C4F20206B068B768217800F00C09C90700
:100D900011D0B9F1080F07D0B9F10C0F40F0EA807B
:100DA00017F4803000F0E6803068800303D5606877
:100DB000002800F09382207880072FD5B9F1040F26
:100DC0001ED0B9F10C0F08BF17F4803018D0E068BE
:100DD000002840F20000C4F2472000F043810121C6
:100DE0000160FFF7DFFB0546306880070FD4FFF78F
:100DF000D9FB401B02284FF00300F5D96BE200BF7E
:100E00003068800703D5E068012840F06782706889
:100E1000216920F4F85040EA012070602078C00673
:100E200026D42078000741D42078400758D4656A3A
:100E3000CDB1B9F10C0F40F0D180012D00F04E8200
:100E4000B068A16A00F480328A4240F04782E16AC9
:100E500000F470128A4240F04182216B00F440009D
:100E6000884240F03B82002003B0BDE8F08300BF21
:100E7000B9F1000F6AD0A069002800F09B80002023
:100E8000C4F2472001210162FFF78CFB054600BF39
:100E90003068800500F1C480FFF784FB401B022806
:100EA000F6D9032003B0BDE8F08300BF60690028D5
:100EB00040F20000C4F247206AD00121C0F8801639
:100EC000FFF770FB054600BF706B8007ACD4FFF7DF
:100ED00069FB401B0228F7D9032003B0BDE8F0836B
:100EE000706A5FEAC00808D4706A40F0805070628F
:100EF000706A00F080500090009847F20007C4F23A
:100F000000073868C00513D4386840F48070386032
:100F1000FFF748FB054600BF3868C00508D4FFF757
:100F200041FB401B64284FF00300F5D9D3E100BF1B
:100F3000A168706B002900F0AF80052900F0A48043
:100F4000012940F0C18040F48070C3E03068800522
:100F500003D5A069002800F0C181206A716801F4FE
:100F6000604188426AD9B16811F0F00F00F0028147
:100F7000002159E161683068002900F0CF8005291F
:100F800000F0C480012940F0DF8040F48030E1E0CF
:100F90000021C0F88016FFF705FB0546706B80073F
:100FA0007FF542AFFFF7FEFA401B02284FF0030027
:100FB000F4D990E10020C4F2472000210162FFF73C
:100FC000F1FA0546306880057FF52BAFFFF7EAFAA6
:100FD000401B02284FF00300F4D97CE10027C4F243
:100FE000472700203866FFF7DDFA022D05460BD1B2
:100FF0003068800140F1EA80FFF7D4FA401B0228F4
:101000004FF00300F4D966E1306880017FF52BAF23
:10101000FFF7C8FA401B02284FF00300F4D95AE149
:101020007068D4E9071220F4604010437060706863
:1010300020F07F4040EA01607060F2E6716821F4C0
:101040006041014371607168E26921F07F4141EACA
:1010500002617160B16811F0F00F00F0A180002111
:101060000EE100BF00210160FFF79CFA054600BFBA
:10107000306880077FF5D2AEFFF794FA401B022854
:101080004FF00300F4D926E140F480607063706B88
:1010900040F480701EE000BF20F480707063706BBD
:1010A00020F480607063FFF77DFA054641F28837CF
:1010B000706B800520D5FFF775FA401BB8424FF0E2
:1010C0000300F5D907E100BF20F480707063706BF6
:1010D00020F480607063FFF765FA054641F28837B7
:1010E000706B800508D4FFF75DFA401BB842F7D952
:1010F000032003B0BDE8F083B8F1000F3FF597AED1
:10110000706A20F08050706291E600BF40F4802049
:101110003060306840F480301CE000BF20F4803044
:101120003060306820F480203060FFF73BFA0546DD
:10113000306880037FF53FAEFFF734FA401B642828
:101140004FF00300F4D9C6E020F4803030603068FE
:1011500020F480203060FFF725FA054630688003D0
:101160003FF529AEFFF71EFA401B64284FF003003D
:10117000F4D9B0E0716AC90047F20001C4F200017D
:1011800040D4726A42F080527262726A02F08052F7
:101190000192019A0A68716A21F08051716232E00D
:1011A000716AC90047F20001C4F2000156D4726AA4
:1011B00042F080527262726A02F080520292029A87
:1011C0000A68716A21F08051716248E0B06804F1E8
:1011D00028030ECB20F47D00084310431843B06071
:1011E00001203866FFF7DEF9044600BF3068800151
:1011F0003FF539AEFFF7D6F9001B02284FF0030088
:10120000F4D968E00A68B0F5404F4FF000010BD107
:1012100002F4C052B2F5C05F06D1D6F8001441F016
:101220000401C6F800140121D6F8002422F00102BE
:101230000A44C6F80024D6F8002402F001028A42CB
:101240004CD1716821F46041014371607168E269B9
:1012500021F07F4141EA026171601EE00A68B0F549
:10126000404F4FF000010BD102F4C052B2F5C05F05
:1012700006D1D6F8001441F00401C6F8001401218B
:10128000D6F8002422F001020A44C6F80024D6F859
:10129000002402F001028A4220D1B16842F23442B5
:1012A000C1F30311C0F60002400B515C4FF48032D1
:1012B00002FA00F020FA01F140F21400C2F200003C
:1012C00040F21C020068C2F200021160FFF79CFBB2
:1012D00000283FF4A6AD03B0BDE8F083012003B0C1
:1012E000BDE8F08370B528B1416A29B100210161E0
:1012F000142106E0012070BD4168B1F5827F02D063
:101300001C21002242500026866290F8511029B913
:1013100080F85060054600F035F82846022180F834
:10132000511090E82E0002F482720C6803F404431A
:1013300024F040040C601A4405F4006305691A4463
:1013400005F0020345691A4405F001038569C46983
:101350001A4405F400731A4404F03803046A1A446A
:1013600004F08003846A1A4304F400531A430A60A9
:10137000042202EA15424A600121466580F85110B4
:10138000304670BD80B586B043F600010068C4F2F7
:101390000001002288420592CDE9032202920192C7
:1013A00002D006B080BD00BF43F61C00C4F20200AC
:1013B000836843F480438360836803F4804300932D
:1013C000009B036843F002030360006800F0020022
:1013D000009000984FF4604001900220CDE9020295
:1013E000032004900520059001F5E63001A9FEF7E1
:1013F000F9FF06B080BD00002DE9F04182B004463F
:1014000090F85000012803D1022002B0BDE8F0811D
:1014100001201D460F46164684F85000FFF7C2F81B
:1014200094F8511001290DD18046002F4FF0010092
:1014300018BF002E0ED1002184F8501002B0BDE874
:10144000F08100BF0220002184F8501002B0BDE8F6
:10145000F08100BF0320002284F8510062652763F9
:10146000A686E686A263A287E287A0683146B0F529
:10147000004F20682264626407D1026822F04002B3
:101480000260026842F4804202600268520603D49D
:10149000026842F04002026062680139E368B2FA11
:1014A00082F2B1FA81F152094909B3F5006F41EABC
:1014B000020139D131B137F8021BC1602763E08ED8
:1014C0000138E086E08E002868D0681C0BD11AE055
:1014D000216B31F8022BC2602163E08E0138E08677
:1014E000E08E00285AD0206881688907F0D4FFF781
:1014F00059F8A0EB0800A842F2D338E0FFF752F801
:10150000E08E00284AD0206881688907F6D5216BD3
:1015100031F8022BC2602163E08E0138E086E08E54
:101520000028F0D13AE000BF39B139780173206B5F
:1015300001302063E08E0138E086E08E70B3681CD5
:101540000BD11BE0216B09780173206B0130206304
:10155000E08E0138E086E08E00B32068816889075C
:10156000F0D4FFF71FF8A0EB0800A842F3D3032044
:1015700073E000BFFFF716F8E08E78B1206881684D
:101580008907F7D5216B09780173206B013020633F
:10159000E08E0138E086E08E0028EFD140F21C009A
:1015A000C2F20000006849F68171C1F25E61A0FBE1
:1015B0000101480D4FF47A71484301906068B0F51D
:1015C000827F1FD1204680212A46434600F0EEFA52
:1015D00028B1606D40F02000606520206065A06843
:1015E00038B9002000902068C168009180680090A0
:1015F0000098606D80B30120002184F8501002B083
:10160000BDE8F08101980028E9D0019801380190E7
:10161000206880680006E2D501980028DFD0019894
:1016200001380190206880680006D8D5019800280C
:10163000D5D0019801380190206880680006CED589
:1016400001980028CBD0019801380190206880686B
:101650000006D7D4C3E700BF0020012184F8511051
:10166000002184F8501002B0BDE8F081411E002036
:10167000B0EB116F1CBF012070474EF21002CEF28A
:10168000000251604EF62351CEF20001F0230B70A0
:101690000721906011607047FEE700002DE9F047D8
:1016A00082B0044600689A460B9D0A9E03689146E4
:1016B00043F48062026002680F4642F48071016068
:1016C00020464FF0011100223346009500F070F8DB
:1016D00050B120680068C00544BF4FF4007020641A
:1016E000032002B0BDE8F08740F202082068C0F293
:1016F000010807F0FE0707612046414632462B46A7
:1017000000F03CF920B1012002B0BDE8F08700BF35
:101710000020019020682A46416901918069314684
:1017200001900198204600F0DDF9B0B92068BAF1C7
:10173000010F09D04FEA19210161204631462A469E
:1017400000F0D0F948B920685FFA89F101612046BC
:1017500031462A4600F0C6F960B1206C0428D2D187
:101760002068016841F400710160012002B0BDE809
:10177000F08700BF206800220168334641F4807181
:10178000016020464FF00111009500F011F800288B
:101790009FD147F0010C27682046414632462B4630
:1017A000C7F810C002B0BDE8F04700F0E7B800008D
:1017B0002DE9F041054600681E46144601F47F02FB
:1017C00001338FB242D0DDF81880B2F5803F40F08F
:1017D000878040693840C01BB0FA80F04009A042C1
:1017E00040F0C8804EB924E040693840C01BB0FAD0
:1017F00080F04009A04240F0BD80FEF7D3FEA0EB90
:1018000008012868B142EFD941693940C91BB1FAD2
:1018100081F14909A142E7D19BE000BF406938400E
:10182000C01BB0FA80F04009A0424FF0000040F029
:10183000A280FEF7B7FE286841693940C91BB1FA9A
:1018400081F14909A142E9D183E000BFB2F5803FAF
:1018500024D100BF41693940C91BB1FA81F149095E
:10186000A14240F0878041693940C91BB1FA81F13A
:101870004909A14240F07E8041693940C91BB1FA53
:1018800081F14909A14275D141693940C91BB1FAB9
:1018900081F14909A142DDD06CE000BF8169394086
:1018A000C91BB1FA81F14909A14263D1816939406B
:1018B000C91BB1FA81F14909A1425BD18169394063
:1018C000C91BB1FA81F14909A14253D1816939405B
:1018D000C91BB1FA81F14909A142DFD04AE000BF3A
:1018E00080693840C01BB0FA80F04009A04241D165
:1018F00046B923E080693840C01BB0FA80F0400947
:10190000A04237D1FEF74EFEA0EB08012868B14295
:10191000F0D981693940C91BB1FA81F14909A14265
:10192000E8D116E080693840C01BB0FA80F0400969
:10193000A0424FF0000018BFBDE8F081FEF732FE74
:10194000286881693940C91BB1FA81F14909A1426E
:10195000E8D100202021286385F83D1085F83E005D
:10196000296C41F02001296485F83C000120BDE884
:10197000F08100BF0020BDE8F0810000F0B581B02B
:10198000044600681D4643698FB203EA0701B94265
:1019900002D1002001B0F0BD4169164601323CD0B1
:1019A000490512D47EB300BFFEF7FCFD411B206841
:1019B000B14203D941693940B9422BD1416939401B
:1019C000B942E6D041694905EED5016841F400719C
:1019D00001606FF4806141610420002120222163B5
:1019E00084F83D2084F83E10226C1043206484F873
:1019F0003C10012001B0F0BD41693940B942C8D066
:101A000041694905E1D4FEF7CDFD206841693940BF
:101A1000B942F1D02020E0E741694905D5D44169B8
:101A20003940B942B5D041694905CED44169394000
:101A3000B942AED041694905C7D441693940B9427C
:101A4000A7D041694905C0D441693940B942E3D1C1
:101A50009FE7000070B504460068154650F8143F33
:101A60005A063DD40E4629B926E000BF50F8141F8F
:101A7000490635D40168C90621D4FEF793FD411B00
:101A80002068B142F2D941694906EFD400202021F3
:101A9000206384F83D1084F83E00206C40F0200064
:101AA00018E000BFFEF77EFD206850F8141F4906BD
:101AB000ECD50168490613D40168C906F2D56FF068
:101AC0001001016000202021206384F83D1084F87B
:101AD0003E00206C2064002084F83C00012070BD92
:101AE000002070BD70B50368044653F8140F00065B
:101AF00011D40E46481C29D086BB00BF186840058B
:101B000027D4FEF74FFD236853F8140F000637D58E
:101B100018680006F2D5002070BD00BF18680006E6
:101B2000F9D41868400514D418680006F3D418686E
:101B300040050ED418680006EDD41868400508D496
:101B4000186800064FF0000048BF70BD18684005D7
:101B5000E4D56FF480601860042012E0154603E0BD
:101B600053F8140F0006D6D418684005F1D4FEF7D8
:101B700019FD401B2368B042F2D958690006EFD422
:101B8000202000212022216384F83D2084F83E108B
:101B9000226C10432064012084F83C1070BD0000CA
:101BA000FEE70000FEE70000704700002DE9F0416D
:101BB00082B01E4690460D460446FEF7F3FC301AEE
:101BC00000EB0807FEF7EEFC40F21C01C2F2000138
:101BD0000968C1F3CB317943019121688A682A40B1
:101BE000AA4227D1064618F101001FD0FEF7DAFC01
:101BF000801BB84222D2019801990028A1F101016D
:101C000001912168896808BF074601EA0500A842DA
:101C1000ECD00FE088682840A8420BD188682840A3
:101C2000A84207D188682840A84203D18868284084
:101C3000A842EFD0002002B0BDE8F081D4E9000155
:101C40004268B1F5827F22F0E00242600AD1A168C9
:101C5000B1F5004F02D0B1F5806F03D1016821F0DA
:101C600040010160A16AB1F5005F07D1016821F46C
:101C700000510160016841F400510160012084F8C5
:101C80005100002084F85000032002B0BDE8F0812C
:101C900070470000FEF79ABE70470000FEE70000A4
:101CA0002DE9F04385B0814640F280004FF0FF34CB
:101CB00002270DF11206C2F200009021002201233A
:101CC000CDE900670294FEF725FDBDF81200C0BA09
:101CD00000F064FA4FF0705100F0E0FA40F20008B2
:101CE000C2F20008D8F80410054600F0EDF998BBE0
:101CF00040F28000C2F200009021002201230096F1
:101D000002940197FEF706FDBDF81200C0BA00F07C
:101D100045FA4FF0705100F0C1FA0021C4F2C82119
:101D200000F0BCFA00F01EFA00BA000CADF8120088
:101D300080208DF811000DF111010DF112034846BC
:101D40000122009700F0A2F808F110000068FEF7E9
:101D500035FB05B0BDE8F083D8F80010284600F048
:101D6000B3F9B8BB4FF0FF30029040F2800002257B
:101D7000C2F2000090210022012300960195FEF797
:101D8000C9FCBDF81200C0BA00F008FA4FF070515B
:101D900000F084FA0021C4F2C82100F07FFA00F0BC
:101DA000E1F900BA000CADF8120080208DF81100A6
:101DB0000DF111010DF1120348460122009500F0CA
:101DC00065F808F10C000068FEF7F8FA05B0BDE808
:101DD000F08300BF4FF0FF30029040F280000225F8
:101DE000C2F2000090210022012300960195FEF727
:101DF00091FCBDF81200C0BA00F0D0F94FF070515C
:101E000000F04CFA0021C4F2C82100F047FA00F0BB
:101E1000A9F900BA000CADF8120080208DF811006D
:101E20000DF111010DF1120348460122009500F059
:101E30002DF808F108000068FEF7C0FA05B0BDE80B
:101E4000F083000010B50446C068218A0022FEF726
:101E5000A3FB0120FEF7B2FAE068218A0122FEF717
:101E60009BFB002010BD000010B50446406821898E
:101E70000022FEF791FB0120FEF7A0FA606821899D
:101E80000122FEF789FB002010BD00002DE9F04182
:101E9000DDF818801D4617460E4604466069218B02
:101EA000FEF774FB0128F9D0606821890022FEF753
:101EB00073FB206831463A464FF0FF33FFF79CFA38
:101EC000B8F1000F06D02068294642464FF0FF3394
:101ED000FFF792FA606821890122FEF75DFB00207E
:101EE000BDE8F08192B040F20044C4F20204FEF773
:101EF0007BFD05AD28463421FEF7F8F9002646F6AD
:101F000000400496CDE90266CDE90066CFF6FE708A
:101F10002158012262F3CC212150102005904FF46A
:101F20002040CDE90D062846CDE90B26FEF71EFF21
:101F300020B1EFF3108072B6FEE700BF0F20CDE9AD
:101F4000000668460021CDE902660496FEF7E6FD2C
:101F500020B1EFF3108072B6FEE700BF002643F613
:101F60001C000996CDE90766CDE90566C4F20200BA
:101F7000016843F6000841F002010160006841F287
:101F8000020100F002000090009820460022C4F2F6
:101F9000000841F20207FEF7FFFA052005ADCDE982
:101FA0000506204629460796FEF71CFA0120CDE9D2
:101FB00006062046294605970896FEF713FA40F2D2
:101FC000800008F5E051C2F2000048F2A0624FF430
:101FD0008043C0F2010280E84600C0E90363C0E923
:101FE0000566C0E90766FEF7E3FA28B1EFF3108053
:101FF00072B600BFFEE700BF40F2D400C2F200009C
:102000004FF482714FF40072C0E900810A21C0E9E7
:102010000266C0E90466C0E90626C0E90866C0E9B0
:102020000A61FFF75FF928B1EFF3108072B600BFC5
:10203000FEE700BF0D480DF1180C05900BA0071D21
:10204000D0E90565D0E907408ECFCDE90C4005AC5D
:1020500020468CE88E00CDE90A65FFF7F3FE2046A6
:10206000FFF702FF2046FFF71BFEFBE7D40000202E
:1020700000040240001000000004024002000000C2
:1020800000040240040000000004024001000000BF
:1020900010B500F033F80CBF0120002010BD10B5C2
:1020A00000F02CF814BF0120002010BD10B500F086
:1020B0008DF88CBF0120002010BD10B500F086F80F
:1020C0002CBF0120002010BD10B500F0B3F894BF64
:1020D0000120002010BD10B500F0ACF834BF012085
:1020E000002010BD401058BFC0F14040491058BFFB
:1020F000C1F140418142EFF30080704750EA010C8A
:1021000000F113801CF5000F58BFBCF5000F01D47F
:102110008842704707D710F5000F58BF11F5000F20
:1021200015D488427047894270471CF5000F04D5CA
:10213000BCF5000FF7D5814270474FF0807C1CEB57
:10214000400F38BF1CEB410F01D28142704710B5E0
:1021500000F025F9922449004FF000504FF08051D3
:10216000FFF7C0BF41000B0ED3F19E0208D950F417
:1021700000034FEA032323FA02F048BF40427047AE
:1021800010B500F00CF900BF499224800020704780
:102190006FF0004282EA20007047000010F000411A
:1021A00048BF4042B0FA80F310FA03F2C3F19D0336
:1021B0000BD051EAC35101EB1220530638BF7047D0
:1021C00000F1010008BF20F00100704750EA010C47
:1021D00000F113801CF5000F58BFBCF5000F01D4AF
:1021E0008842704707D710F5000F58BF11F5000F50
:1021F00015D488427047894270471CF5000F04D5FA
:10220000BCF5000FF7D5814270474FF0807C1CEB86
:10221000400F38BF1CEB410F01D28142704710B50F
:1022200000F0BDF8922449004FF080504FF000516B
:10223000FFF758BF50EA010C00F113801CF5000FA6
:1022400058BFBCF5000F01D48842704707D710F57E
:10225000000F58BF11F5000F15D48842704789420E
:1022600070471CF5000F04D5BCF5000FF7D581426F
:1022700070474FF0807C1CEB400F38BF1CEB410FC8
:1022800001D28142704710B500F089F892244900CC
:102290004FF000504FF08051FFF724BF4FF47F0CF8
:1022A0001CEAD0121EBF1CEAD11392EA0C0F93EA6B
:1022B0000C0F00F0478090EA010F48BF42F4807293
:1022C0004FF0004C4CEA00204CEA012102EB0302E3
:1022D000A0FB0113A2F50002002918BF43F001037F
:1022E0005B0028BF4FEA330342EB22425FEA132C24
:1022F0004CEBC2502EBFBCEB436FB2F57C0F704766
:102300004FEA036CBCF1004F08BF20F00100B2F5AA
:102310007C0F38BF70470BD582F0FF0212F5803F6B
:10232000C8BF704700F1C040D8BF00F00040704700
:1023300000F5000C5FEA4C0C48BF7047B0F1C0409C
:1023400000F073B80CEAD11390EA010F48BF42F4D1
:102350008072624538BF634504D280EA010000F014
:102360000040704710B500F01AF800BF8900013E28
:1023700000F007B800F009B85FEA410C5FEA1C6C96
:1023800008D080EA010000F050B85FEA400C5FEA34
:102390001C6CF6D14FF00040A0F5800070470EF1A4
:1023A000020E2EF0030E5EF8044B244204D44FEAD2
:1023B0004102B2F17F4F11D84FEA4003B3F17F4F92
:1023C0000CD80ED14FEAD07C0CEB4C0C0CF1020C6B
:1023D000B2F17F4F08BF4CEBD17C04E04FF0080C0A
:1023E00001E04FEAD17C0CEB4C0324FA03F404F037
:1023F0000704B4F1040C06D20EEB840CBDE81040C7
:102400004CF0010C6047DFE80CF0070802024FF0C7
:102410000040A0F5800010BD0846420018BFD2F170
:10242000807288BF00F0004010BDFF2141EAD0500B
:10243000C005704700000000000000000102030416
:10244000060708090000000001020304030406084F
:102450000C10182030000000782400080000002034
:1024600020000000580100089824000820000020E7
:1024700010070000780100080000F0410000204231
:10248000808D5B00C0C62D0040420F001000000090
:082490000100000068FF1F00BD
:04000005080000F5FA
:00000001FF
